:020000040000fa
:080000000002040000000000f2
:020000040000fa
:040008003a030000b7
:020000040000fa
:04000c007c03000071
:020000040000fa
:04001000dc0300000d
:020000040000fa
:040014005a0300008b
:020000040000fa
:040018009c03000045
:020000040000fa
:04001c00bc03000021
:020000040000fa
:04002000fc030000dd
:020000040000fa
:04002400a004000034
:020000040000fa
:04002800a004000030
:020000040000fa
:04002c00a00400002c
:020000040000fa
:04003000a004000028
:020000040000fa
:04003400a004000024
:020000040000fa
:04003800a004000020
:020000040000fa
:04003c00a00400001c
:020000040000fa
:04004000a004000018
:020000040000fa
:04004400a004000014
:020000040000fa
:04004800a004000010
:020000040000fa
:04004c00a00400000c
:020000040000fa
:04005000a004000008
:020000040000fa
:04005400a004000004
:020000040000fa
:04005800a004000000
:020000040000fa
:04005c00a0040000fc
:020000040000fa
:04006000a0040000f8
:020000040000fa
:04006400a0040000f4
:020000040000fa
:04006800a0040000f0
:020000040000fa
:04006c00a0040000ec
:020000040000fa
:04007000a0040000e8
:020000040000fa
:04007400a0040000e4
:020000040000fa
:04007800a0040000e0
:020000040000fa
:04007c00a0040000dc
:020000040000fa
:04008000a0040000d8
:020000040000fa
:04008400a0040000d4
:020000040000fa
:04008800a0040000d0
:020000040000fa
:04008c00a0040000cc
:020000040000fa
:04009000a0040000c8
:020000040000fa
:04009400a0040000c4
:020000040000fa
:04009800a0040000c0
:020000040000fa
:04009c00a0040000bc
:020000040000fa
:0400a000a0040000b8
:020000040000fa
:0400a400a0040000b4
:020000040000fa
:0400a800a0040000b0
:020000040000fa
:0400ac00a0040000ac
:020000040000fa
:0400b000a0040000a8
:020000040000fa
:0400b400280400001c
:020000040000fa
:0400b800a0040000a0
:020000040000fa
:0400bc00a00400009c
:020000040000fa
:0400c000a004000098
:020000040000fa
:0400c400a004000094
:020000040000fa
:0400c800a004000090
:020000040000fa
:0400cc00a00400008c
:020000040000fa
:0400d000a004000088
:020000040000fa
:0400d400a004000084
:020000040000fa
:0400d800a004000080
:020000040000fa
:0400dc00a00400007c
:020000040000fa
:0400e000a004000078
:020000040000fa
:0400e400a004000074
:020000040000fa
:0400e800a004000070
:020000040000fa
:0400ec00a00400006c
:020000040000fa
:0400f000a004000068
:020000040000fa
:0400f400a004000064
:020000040000fa
:0400f800a004000060
:020000040000fa
:0400fc00a00400005c
:020000040000fa
:04010000a004000057
:020000040000fa
:04010400a004000053
:020000040000fa
:04010800a00400004f
:020000040000fa
:04010c00a00400004b
:020000040000fa
:04011000a004000047
:020000040000fa
:04011400a004000043
:020000040000fa
:04011800a00400003f
:020000040000fa
:04011c00a00400003b
:020000040000fa
:04012000a004000037
:020000040000fa
:04012400a004000033
:020000040000fa
:04012800a00400002f
:020000040000fa
:04012c00a00400002b
:020000040000fa
:04013000a004000027
:020000040000fa
:04013400a004000023
:020000040000fa
:04013800a00400001f
:020000040000fa
:04013c00a00400001b
:020000040000fa
:04014000a004000017
:020000040000fa
:04014400a004000013
:020000040000fa
:04014800a00400000f
:020000040000fa
:04014c00a00400000b
:020000040000fa
:04015000a004000007
:020000040000fa
:04015400a004000003
:020000040000fa
:04015800a0040000ff
:020000040000fa
:04015c00a0040000fb
:020000040000fa
:04016000a0040000f7
:020000040000fa
:04016400a0040000f3
:020000040000fa
:04016800a0040000ef
:020000040000fa
:04016c00a0040000eb
:020000040000fa
:04017000a0040000e7
:020000040000fa
:04017400a0040000e3
:020000040000fa
:04017800a0040000df
:020000040000fa
:04017c00a0040000db
:020000040000fa
:040180000e0300006a
:020000040000fa
:04018400a0040000d3
:020000040000fa
:04018800a0040000cf
:020000040000fa
:04018c00a0040000cb
:020000040000fa
:04019000a0040000c7
:020000040000fa
:04019400a0040000c3
:020000040000fa
:04019800a0040000bf
:020000040000fa
:04019c00a0040000bb
:020000040000fa
:0401a000a0040000b7
:020000040000fa
:0401a400a0040000b3
:020000040000fa
:0401a800a0040000af
:020000040000fa
:0401ac00a0040000ab
:020000040000fa
:0401b000a0040000a7
:020000040000fa
:0401b400a0040000a3
:020000040000fa
:0401b800a00400009f
:020000040000fa
:0401bc00a00400009b
:020000040000fa
:0401c000a004000097
:020000040000fa
:0401c400a004000093
:020000040000fa
:0401c800a00400008f
:020000040000fa
:0401cc00a00400008b
:020000040000fa
:0401d000a004000087
:020000040000fa
:0401d400a004000083
:020000040000fa
:0401d800a00400007f
:020000040000fa
:0401dc00a00400007b
:020000040000fa
:0401e000a004000077
:020000040000fa
:0401e400a004000073
:020000040000fa
:0401e800a00400006f
:020000040000fa
:0401ec00a00400006b
:020000040000fa
:0401f000a004000067
:020000040000fa
:0401f400a004000063
:020000040000fa
:0401f800a00400005f
:020000040000fa
:0401fc00a00400005b
:020000040000fa
:04020000a004000056
:020000040000fa
:04020400a004000052
:020000040000fa
:04020800a00400004e
:020000040000fa
:04020c00a00400004a
:020000040000fa
:04021000a004000046
:020000040000fa
:04021400a004000042
:020000040000fa
:04021800a00400003e
:020000040000fa
:04021c00a00400003a
:020000040000fa
:04022000a004000036
:020000040000fa
:04022400a004000032
:020000040000fa
:04022800a00400002e
:020000040000fa
:04022c00a00400002a
:020000040000fa
:04023000a004000026
:020000040000fa
:04023400a004000022
:020000040000fa
:04023800a00400001e
:020000040000fa
:04023c00a00400001a
:020000040000fa
:04024000a004000016
:020000040000fa
:04024400a004000012
:020000040000fa
:04024800a00400000e
:020000040000fa
:04024c00a00400000a
:020000040000fa
:04025000a004000006
:020000040000fa
:04025400a004000002
:020000040000fa
:04025800a0040000fe
:020000040000fa
:04025c00a0040000fa
:020000040000fa
:04026000a0040000f6
:020000040000fa
:04026400a0040000f2
:020000040000fa
:100400000f2621000eff27000e01880000000000cb
:10041000000020000000e000020032000001200087
:100420002002880014000700470107000000e000d8
:1004300003003a0000a6230001002000020037005c
:100440000000200001002000810f70000100320038
:100450000f000700000020000000e0000200320052
:1004600000000200000000007438020000000000dc
:100470000040da000000fe00600b20000000e000f9
:1004800002003200002020009001880000000600d9
:10049000a1028800800478000000eb001f003700f4
:1004a000e284440054a0b4009905ba00e2844400f8
:1004b00054a0b4009906ba00e284440054a0b400e9
:1004c0000006eb00476fde00fd07b200ae018800ba
:1004d000636ce10003003a000ad801000000eb0061
:1004e0000e003700606ce10008003a00004deb00a0
:1004f0000a05e800020039003420ec000af0a000f0
:100500008b05e900f9ff3e00040037006168e10057
:10051000010032000086eb000b00070019c7ba008b
:100520000e04e0001905ba0003003a000a00e000da
:10053000dbff3a0000000600fe07b200ae028800b2
:100540008a047800f5ff37000cd0a300e20f4d00bd
:100550001c003b0089027800354dba000a05e8000e
:10056000020039003420ec000af0a0008b05e900fd
:100570000f003200254dba000a05e80002003900dc
:100580003420ec000af0a0008b05e90008003200de
:100590000c00e0000600320015cdba000a05e800a4
:1005a000020039003420ec000af0a0008b05e900bd
:1005b0008984e80054a0b4000b00e000e2ff3a0098
:1005c000000006009902ba00055d78008b05e9007d
:1005d000f7ff3200c82ade00055d78008b05e900d0
:1005e000f3ff32000c00e000f1ff320019ddba0029
:1005f000eeff3700842d040000000000982d040059
:1006000000000000ac2d040000000000c02d04001c
:1006100000000000d22d0400000000003600f800a9
:10062000809fbe00829fbe00849fbe00869fbe004a
:100630003200f8003400f80010002000a00188000b
:100640000020200000d0fe000000fa000102070098
:100650000080fa003400f9003200f9004f03be00b8
:100660004f02be004f01be004f00be003600f90031
:10067000004006003600f800809fbe00829fbe004a
:10068000849fbe00869fbe000000fa00c028a9001b
:100690000000eb00c61b07000080fa004f03be00fd
:1006a0004f02be004f01be004f00be003600f900f1
:1006b000004006003600f800809fbe00829fbe000a
:1006c000849fbe00869fbe000000fa00bd1b07008d
:1006d000c048a90010002000b51b07000080fa00e8
:1006e0004f03be004f02be004f01be004f00be00d0
:1006f0003600f900004006003600f800809fbe007a
:10070000829fbe00849fbe00869fbe000000fa004c
:10071000c068a90020002000a51b07000080fa0087
:100720004f03be004f02be004f01be004f00be008f
:100730003600f900004006003600f800809fbe0039
:10074000829fbe00849fbe00869fbe000000fa000c
:10075000c088a90030002000951b07000080fa0027
:100760004f03be004f02be004f01be004f00be004f
:100770003600f900004006003600f800809fbe00f9
:10078000829fbe00849fbe00869fbe000000fa00cc
:10079000c0a8a90040002000851b07000080fa00c7
:1007a0004f03be004f02be004f01be004f00be000f
:1007b0003600f900004006003600f800809fbe00b9
:1007c000829fbe00849fbe00869fbe000000fa008c
:1007d000c608a90070002000751b07000080fa0001
:1007e0004f03be004f02be004f01be004f00be00cf
:1007f0003600f900004006003600f800809fbe0079
:10080000829fbe00849fbe00869fbe000000fa004b
:100810002146800000022000008060000000e0000f
:1008200003003200c4a8a90090002000601b07004c
:1008300020468000700060000000e00003003200ed
:10084000c488a900a0002000591b0700ffff370043
:100850003600f800809fbe00829fbe00849fbe00cd
:10086000869fbe000000fa00512080000002200098
:10087000008060000000e0001f0032005120800076
:1008800000002200008060000000e000050032004f
:10089000808180000000e000020032008081800042
:1008a0000000010051208000000021000080600055
:1008b0000000e00005003200908180000000e000b0
:1008c0000200320090818000000001005120800071
:1008d00000802000008060000000e0000500320081
:1008e000a08180000000e00002003200a0818000b2
:1008f000000001000aa4a9005020800062006000ee
:100900000000e00006003200c08180000000e0002e
:1009100002003200c0818000000001000a24a9000a
:100920000468a9000080fa004f03be004f02be0019
:100930004f01be004f00be003600f9000040060027
:100940000040da000000fe00000005008001780091
:1009500002003700b15978000201e9000200e0000e
:10096000fcff3a0000000600889fbe008a9fbe0080
:10097000800478000200e0005a0032000140780054
:10098000814c780082814400f1f99f00e20f510010
:100990005400360091449800a1449800e1f99f006a
:1009a000d1f99f00e60f51004e003600b144980087
:1009b000c1f99f00e80f51004a0036000905ea001e
:1009c000630565000a8444000a055100c1ff2f0039
:1009d000010565000080fb008000eb001210200084
:1009e0001310200043000700008cbe000a014400e1
:1009f00060b99f0071b99f00e80f550039003600bb
:100a00002004980031049800400498005104980094
:100a100020b99f0031b99f0040b99f0051b99f0094
:100a2000f80f55002f0036006004980071049800fc
:100a3000000c9800110c9800200c9800310c9800c4
:100a4000400c9800510c980020b19f0031b19f00dc
:100a500040b19f0051b19f0060b19f0071b19f00f4
:100a600000b99f0011b99f00640164007801410042
:100a700002044400020555006011b8000203be00e4
:100a80000002be000403be006022b8000000720035
:100a90008180720002017300838173000f003700b0
:100aa00008027800009abe00029abe00009abe00ba
:100ab0000292be00000c9800110c9800220c9800c5
:100ac000330c9800400c9800510c9800620c980070
:100ad000730c98000a02b1000802b000ff0f550025
:100ae000efff3e00090078004f05be004f04be0036
:100af00000000600020ab900001bb9000200b8009d
:0c0b00008100420081004300000006005c
:020000040000fa
:100b0c0012010000000200000200000000080000ba
:100b1c00d80400000a0000000001000001020000df
:100b2c000001000009020000430000000201000067
:100b3c0000c00000320900000400000000010000a9
:100b4c00020200000100000005240000001000005b
:100b5c00010400002402000002050000240600002d
:100b6c000001000005240000010000000107000046
:100b7c0005810000030a00000002000009040000c7
:100b8c0001000000020a0000000000000007000045
:100b9c0005020000024000000000000007050000f4
:100bac00820200004000000000000000040300006e
:100bbc0009040000340300004d000000690000002f
:100bcc0063000000720000006f0000006300000072
:100bdc0068000000690000007000000020000000a8
:100bec005400000065000000630000006800000075
:100bfc006e0000006f0000006c0000006f00000031
:100c0c00670000007900000020000000490000008f
:100c1c006e000000630000002e00000020030000a6
:100c2c00470000004d0000002000000045000000bf
:100c3c004c00000045000000430000005400000080
:100c4c00520000004f0000004e0000004900000060
:100c5c004300000000000000000000009885000028
:0c0c6c00dc850000e0850000148600001c
:020000040000fa
:100c78000200fa002ac8a9000080eb00202688009c
:100c88000080eb0000268800e024ef0042002000ee
:100c98008000eb00204e200031ff0700dc24ef002d
:100ca800de24ef008e44a900f009200030268800d9
:100cb800f0092000102688008ac4a8009004a80023
:100cc800002021004800de00702688000040eb006c
:100cd800004f7800070037001e80fb00c300dd00ce
:100ce80000202100008140006000b8000089be009b
:100cf8001e4fe8001e407800eb4f5000f6ff36000c
:100d0800ca24a800cc24ef00caa4a900ca24a900b8
:100d18008000200000268800801621008040eb001b
:100d280001487800e01621008040eb000148780077
:100d3800f016210090407800e0c06000014878007b
:100d48000017210090407800e0c06000014878005a
:100d580000268000680060000000e000ecff3a0018
:100d680010c0b30013f0b70010c0b30014f0b70000
:100d78001570ef001670ef000d70ef000040eb00eb
:100d8800004f7800170037001e80fb0080004000ed
:100d980000162100008040008000eb000108780068
:100da8001e80fb0080004000a0152100008040004c
:100db8008000eb00010878001e80fb00311721003d
:100dc800008040008040eb00014878001e80fb0056
:100dd80061172100008040008040eb000148780046
:100de8001e4fe8001e407800e24f5000e6ff360034
:100df80000212100008b8800d000200000278800f7
:100e080090172100209088001190800000c02f00ca
:100e1800008060000030a000109088004000200092
:100e280000908800009080000070a000009088006a
:100e38000270ef001830ef001a30ef001c70ef005e
:100e48000030ef000080fa00000006000200fa00ff
:100e580000808000e10f50000b003a00512680000e
:100e680000042000008060000000e00006003a0056
:100e7800f0fe2f0000268800c204a800c284a80043
:100e8800200020000080880040248000700060005e
:100e98000000e0000700320050248000700060006d
:100ea8000000e00003003200000120004024880018
:100eb8004708070080248000620060000000e0000e
:100ec800020032000ac8a900a100370000268000ed
:100ed800610060000000e0000a0032001026800077
:100ee800610060000000e0000600320060ff0700bb
:100ef8002ac8a800400020000080880010002000b8
:100f08000026880000268000700060000000e000d5
:100f18000500320010268000700060000000e0002c
:100f2800010032001d080700412480000004200051
:100f3800008060000000e000030032000004200090
:100f480040248800bd0b0700002680006400600074
:100f58000000e000140032001026800064006000e9
:100f68000000e00004003200120020008000eb00c6
:100f780030072000241907004000200000268800c0
:100f880011d0bf000004e0000300320011d0bf0000
:100f98000040e90011f0b70011d0bf000004e000e4
:100fa80001003a0020030700012680000008200005
:100fb800008060000000e00006003200112680007a
:100fc80000082000008060000000e00001003200fe
:100fd800b207070000268000620060000000e00001
:100fe8000c00320010268000620060000000e00063
:100ff80008003200120020008000eb00f0ff2700fc
:10100800011907000080eb0020268800200020003e
:101018000026880000808000e30f500002003e0098
:101028000ac8a9004a00370010268000680060003e
:101038000000e000450032000040eb00004f78005f
:101048003d00370000268000680060000000e000d6
:101058003d00320040268000004078000ef0b700c6
:101068000ed0bf000080fb004400de000040780086
:101078000ff0b70080002000002688000ed0bf00c7
:10108800684060000004e00011003a000fd0bf0083
:101098000081fb008080fb00601721000080400079
:1010a8009040780061c060000004a200e140600048
:1010b8006017210000004100e1c060001041780085
:1010c8000204a10081407100014878001000370037
:1010d8000fd0bf000081fb008080fb00301721008b
:1010e800008040009040780061c060000004a200c9
:1010f800e14060003017210000004100e1c06000bd
:10110800104178000204a100814071000148780074
:101118000fd0bf000004e00002003a00b807070043
:10112800040037000001eb00e10021002007200047
:10113800b51807001e4fe8001e407800e34f500026
:10114800c0ff360001003700000000000ac8a900ef
:101158000080fa00000006000400fa000e81e80092
:1011680000497800630047000148780063004700a1
:10117800104078000080fb00680060000000e0007c
:10118800040032008040eb000e80e8001040780038
:10119800df03070063004700104078000080fb0071
:1011a800640060000000e0000400320011c0b300d9
:1011b8000e80e80010407800d5030700014e20009b
:1011c8000e80e800104078000080fb00000040001e
:1011d800008f40009e007800630047009048780028
:1011e8000080fa00000006000800fa000e82e800fd
:1011f800004a78006300470001487800640047000f
:10120800020878006600470003487800630047003a
:10121800104078000004e000080032000e80e8006a
:10122800104078000080fb0080004000001621007c
:1012380000804000100f7800070037000e80e8009b
:10124800104078000080fb0080004000a0152100bd
:1012580000804000100f78001e0078000000e000b9
:1012680002003a000000eb009600370064004700d7
:10127800900078001e007800f20f200002816000c4
:10128800e401400093417800e0c1610082c171002f
:101298006401400003497800c808de006501400089
:1012a8001241780060416100814071006500400092
:1012b8000148780066004700104078000080fb0075
:1012c800f13f2000010060009e007800f20f20002e
:1012d800020160008181e80093417800e0c161006b
:1012e80082c171000181e800034978004800de00ee
:1012f80063006000634060006381400092417800b1
:10130800c2cfb30002c16100004171006380400098
:10131800024878001e0078009080fb000000e8007a
:10132800104078000080fb004800dd00008070005d
:101338008000780000042000808060001e00780093
:10134800f20f20000281600090417800e0c1610046
:1013580002c1710002487800c808de000001e800f8
:101368001241780060416100814071000000e8008e
:10137800014878001e0078009080fb000000e8001b
:10138800104078000080fb004800dd0000807000fd
:10139800800078000130a0001e007800f20f2000c5
:1013a8000281600090417800e0c1610002c17100d3
:1013b80002487800c808de000001e8001241780001
:1013c80060416100814071000000e8000148780038
:1013d8001e0078009080fb000000e80010407800b4
:1013e8000080fb004800dd0000807000800078006d
:1013f8000170a0001e007800f20f2000028160003a
:1014080090417800e0c1610002c171000248780093
:10141800c808de000001e800124178006041610060
:10142800814071000000e80001487800630047002f
:10143800104078000004e000110032000e80e8003f
:10144800104078000080fb008e80e8009140780012
:101458008180fb00018140000116210081004100cc
:10146800910078000130a20001017800800040005e
:1014780000162100008040000208780010003700a4
:101488000e80e800104078000080fb008e80e800a5
:10149800914078008180fb0001814000a115210066
:1014a80081004100910078000130a200010178001c
:1014b80080004000a015210000804000020878004c
:1014c8001e0078000080fa00000006000400fa0000
:1014d8000e81e80000497800630047000148780061
:1014e8000e80e800104078000004e00060003a0038
:1014f800308080008080e80091407800e0c0600083
:10150800014178000234a0008080e8008248780019
:10151800e300400011417800c1cfb3008140610071
:101528006300400001487800308080009117210056
:10153800f20f200002816000e4014000934178002e
:10154800e0c1610082c17100640140000349780074
:10155800c808de0065014000124178006041610062
:1015680081407100650040000148780030808000ab
:1015780090407800e0c06000c140b30001487800a6
:101588008000e80091407800e0c060000000e800ba
:101598000148780030808000318080001181fb0094
:1015a8008100e800914078008180fb00c808dd00d8
:1015b800810071000170a000f20f2000028160001c
:1015c80090417800e0c1610002c1710002487800d2
:1015d800c808de000001e80012417800604161009f
:1015e800814071000000e80001487800008b80000d
:1015f80090407800e0c060000124a0000148780015
:101608008000e80091407800e0c060000000e80039
:1016180001487800008b8000018b80001181fb005d
:101628008100e800914078008180fb00c808dd0057
:10163800810071000170a000f20f2000028160009b
:1016480090417800e0c1610002c171000248780051
:10165800c808de000001e80012417800604161001e
:10166800814071000000e8000148780076003700ea
:101678000e80e800104078000080fb000000400069
:101688008000780063004700104078000080fb006d
:10169800008040004400dd00800078000020210028
:1016a800008f40001e0078009080fb000000e800da
:1016b800104078000080fb004800dd0000807000ca
:1016c800800078000120a0001e007800f20f2000a2
:1016d8000281600090417800e0c1610002c17100a0
:1016e80002487800c808de000001e80012417800ce
:1016f80060416100814071000000e8000148780005
:101708001e0078009080fb000000e8001040780080
:101718000080fb004800dd00008070008000780039
:101728000170a0001e007800f20f20000281600006
:1017380090417800e0c1610002c171000248780060
:10174800c808de000001e80012417800604161002d
:10175800814071000000e800014878000e80e80030
:10176800104078000080fb000000400080007800f6
:1017780063004700104078000080fb0000804000b4
:101788004400dd00e800400000202100008f4000f8
:101798001e0078009080fb000000e80010407800f0
:1017a8000080fb004800dd000080700080007800a9
:1017b8000120a0001e007800f20f200002816000c6
:1017c80090417800e0c1610002c1710002487800d0
:1017d800c808de000001e80012417800604161009d
:1017e800814071000000e800014878001e00780080
:1017f8009080fb000000e800104078000080fb00ab
:101808004800dd0000807000800078000170a000b2
:101818001e007800f20f20000281600090417800dd
:10182800e0c1610002c1710002487800c808de000a
:101838000001e800124178006041610081407100b8
:101848000000e800014878000080fa000000060067
:101858000200fa00881f7800004f780051268000a7
:1018680000022000008060000000e000c700320095
:101878001e80fb0080004000001621000080400010
:10188800100078009e80fb000181400001162100b5
:1018980081004100910078001183fb008103e8007a
:1018a800974378008783fb00c83bdd00070373007c
:1018b800060178000183e800164378000683fb00e0
:1018c800e3804000914078008180fb00c808dd007b
:1018d80081007300810178000604200007002000c1
:1018e80002047800830178008600780007017800f8
:1018f80081006400028161008202780001027800a0
:101908000401be00f10f2000810061001042780040
:10191800604262008140720001487800c810de0011
:101928000002e8001442780060426200014272003e
:101938008000e80084487800f10f20008180610071
:101948000082e8001442780060426200014272009e
:101958008080e80084487800c818de0063014000f1
:1019680012417800604161008140710063004000cd
:10197800014878001e80fb0080004000001621000e
:1019880000804000100078009e80fb00018140002c
:101998000116210081004100910078001182fb00ae
:1019a8008102e800954278008582fb00c82add00a4
:1019b80005027200040178000182e80014427800f0
:1019c8000482fb00e3804000914078008180fb00a6
:1019d800c808dd008100720081017800040420003d
:1019e800050020000401690085816900f10f2000cd
:1019f80081006100104278006042620081407200fc
:101a080001487800c810de000002e800144278009f
:101a180060426200014272008000e8008448780059
:101a2800f10f2000818061000082e80014427800f4
:101a380060426200014272008080e80084487800b9
:101a4800c818de006301400012417800604161005f
:101a58008140710063004000014878001e80fb004f
:101a68009e80fb0001814000011621008100410099
:101a7800910078000130a200010178008000400048
:101a88000016210000804000020878001e80fb003c
:101a980080004000001621000080400010007800ff
:101aa8009e80fb0001814000011621008100410059
:101ab800910078001181fb008100e80091407800d6
:101ac8008180fb00c808dd008100710001017800f9
:101ad8000104200081006100f20f200002816000f3
:101ae80090417800e0c1610002c1710002487800ad
:101af800c808de000001e80012417800604161007a
:101b0800814071000000e800014878001e80fb0059
:101b1800800040000016210000804000100078007e
:101b28009e80fb00018140000116210081004100d8
:101b3800910078001181fb008100e8009140780055
:101b48008180fb00c808dd00810071000101780078
:101b58000104200081006900f20f2000028160006a
:101b680090417800e0c1610002c17100024878002c
:101b7800c808de000001e8001241780060416100f9
:101b8800814071000000e800014878004f047800a7
:101b98000080fa00000006000000fa00ca24ef00e6
:101ba800c224ef000030ef000080fa0000000600b9
:101bb8000000fa00008080000000e00018003a00f1
:101bc800ca24ef00c224ef00dc24ef00de24ef007b
:101bd8008e44a900f009200030268800f009200072
:101be800102688008ac4a8002ac8a800514380008b
:101bf800f08f2f000080600000a0a00050438800f4
:101c080001003700ca04a800502680006100600067
:101c18000000e000fbff3200100020000080880078
:101c28000080fa00000006000000fa0013d0bf0090
:101c38000004a2000004e000a700320010c0b300b6
:101c480013f0b70014d0bf000004a2000004e000a5
:101c5800a100320010c0b30014f0b70009d0bf00d3
:101c6800e24f50002e003a00008b80008080e80090
:101c78009140780060c160008080e8008248780068
:101c8800e300400011417800c1cfb30081406100fa
:101c98006300400001487800008b80009040780085
:101ca80060c1600081c4b3008140710001487800c0
:101cb8008000e80091407800e0c060000000e80083
:101cc80001487800008b8000018b80001181fb00a7
:101cd8008100e800914078008180fb00c808dd00a1
:101ce800810071000170a000f20f200002816000e5
:101cf80090417800e0c1610002c17100024878009b
:101d0800c808de000001e800124178006041610067
:101d1800814071000000e800014878006e0037003b
:101d280009d0bf00e14f50006b003a001070ef007f
:101d3800208080008080e80091407800e0c060004a
:101d4800014178000234a0008080e80082487800d1
:101d5800e300400011417800c1cfb3008140610029
:101d6800630040000148780020808000911721001e
:101d7800f20f200002816000e401400093417800e6
:101d8800e0c1610082c1710064014000034978002c
:101d9800c808de006501400012417800604161001a
:101da8008140710065004000014878002080800073
:101db80090407800e0c060000124a000014878004d
:101dc8008000e80091407800e0c060000000e80072
:101dd8000148780020808000218080001181fb006c
:101de8008100e800914078008180fb00c808dd0090
:101df800810071000170a000f20f200002816000d4
:101e080090417800e0c1610002c171000248780089
:101e1800c808de000001e800124178006041610056
:101e2800814071000000e8000148780010c0b3004c
:101e380010f0b700308080008080e8009140780082
:101e4800e0c06000014178000234a0008080e80012
:101e580082487800e300400011417800c1cfb30008
:101e680081406100630040000148780030808000b4
:101e780091172100f20f200002816000e401400068
:101e880093417800e0c1610082c1710064014000a3
:101e980003497800c808de00650140001241780057
:101ea8006041610081407100650040000148780090
:101eb8003080800090407800e0c060000174a0008d
:101ec800014878008000e80091407800e0c0600098
:101ed8000000e800014878000080fa0000000600d1
:101ee8000000fa001570ef001670ef0009d0bf006f
:101ef800e24f500041003a00308080008080e800c6
:101f080091407800e0c06000014178000234a000f0
:101f18008080e80082487800e300400011417800a2
:101f2800c1cfb300814061006300400001487800e0
:101f38003080800011182100f20f2000028160001b
:101f4800e401400093417800e0c1610082c1710062
:101f58006401400003497800c808de0065014000bc
:101f680012417800604161008140710065004000c5
:101f780001487800308080009040780060c160009f
:101f880081c4b30081407100014878008000e800f6
:101f980091407800e0c060000000e8000148780047
:101fa80030808000318080001181fb008100e800d2
:101fb800914078008180fb00c808dd008100710035
:101fc8000170a000f20f20000281600090417800ab
:101fd800e0c1610002c1710002487800c808de0053
:101fe8000001e80012417800604161008140710001
:101ff8000000e8000148780043003700f01721008e
:102008001080fb00011821009180fb00c808dd004a
:1020180001007000518b8000810f500007003100d3
:10202800f01721001080fb00011821009180fb00af
:10203800c808dd0001007000508b88003e010700d1
:10204800008b800011182100f20f2000028160002f
:10205800e401400093417800e0c1610082c1710051
:102068006401400003497800c808de0065014000ab
:1020780012417800604161008140710065004000b4
:1020880001487800008b80009040780060c16000b3
:1020980081c4b30081407100014878008000e800e5
:1020a80091407800e0c060000000e8000148780036
:1020b800008b8000018b80001181fb008100e8000b
:1020c800914078008180fb00c808dd008100710024
:1020d8000170a000f20f200002816000904178009a
:1020e800e0c1610002c1710002487800c808de0042
:1020f8000001e800124178006041610081407100f0
:102108000000e800014878000080fa00000006009e
:102118000400fa000e81e8000049780063004700d7
:102128000148780000202100000f78000e80e800a8
:10213800104078000080fb0000004000800078001c
:1021480063004700104078000080fb0000804000da
:102158004400dd001e0f40001e007800904078000b
:102168000174a1000148780063004700104078001e
:102178000004e00008003a000e80e80010407800f3
:102188000080fb0080004000a01521000080400076
:102198001e087800070037000e80e800104078001d
:1021a8000080fb00800040000016210000804000f5
:1021b8001e0878001e007800904078000164a10095
:1021c800014878009e0078006880400090407800c0
:1021d8000164a000014878000080fa0000000600b1
:1021e8000000fa00caa4a900418b80000008200062
:1021f800008060000000e00070003a00e016210056
:102208009040780000c8b30000c060000004e000ff
:102218000a00320020c0b30009f0b70016d0bf0092
:102228000004a2000004e000010032002cff0700b7
:102238001470ef001370ef00bd003700308080008d
:102248008080e80091407800e0c06000014178009b
:102258000234a0008080e80082487800e300400053
:1022680011417800c1cfb300814061006300400094
:10227800014878003080800091172100f20f20007b
:1022880002816000e401400093417800e0c16100f0
:1022980082c171006401400003497800c808de006b
:1022a8006501400012417800604161008140710081
:1022b8006500400001487800308080009040780038
:1022c800e0c06000c140b300014878008000e80029
:1022d80091407800e0c060000000e8000148780004
:1022e80030808000318080001181fb008100e8008f
:1022f800914078008180fb00c808dd0081007100f2
:102308000170a000f20f2000028160009041780067
:10231800e0c1610002c1710002487800c808de000f
:102328000001e800124178006041610081407100bd
:102338000000e80001487800008b80009040780099
:10234800e0c060000124a000014878008000e80097
:1023580091407800e0c060000000e8000148780083
:10236800008b8000018b80001181fb008100e80058
:10237800914078008180fb00c808dd008100710071
:102388000170a000f20f20000281600090417800e7
:10239800e0c1610002c1710002487800c808de008f
:1023a8000001e8001241780060416100814071003d
:1023b8000000e800014878005d0037009017210010
:1023c8009040780000c8b30000c060000004e0003e
:1023d8000f00320010c0b30009f0b70015d0bf00dd
:1023e8000004a2000004e00001003200bcfe070067
:1023f8001470ef001370ef0012d0bf000004a200a9
:102408000004e0004a00320007fe070048003700d9
:1024180020c0b30009f0b700308080008080e80059
:1024280091407800e0c06000014178000234a000cb
:102438008080e80082487800e3004000114178007d
:10244800c1cfb300814061006300400001487800bb
:102458003080800091172100f20f20000281600077
:10246800e401400093417800e0c1610082c171003d
:102478006401400003497800c808de006501400097
:1024880012417800604161008140710065004000a0
:10249800014878003080800090407800e0c06000fb
:1024a8000124a000014878008000e80091407800ed
:1024b800e0c060000000e80001487800308080003b
:1024c800318080001181fb008100e8009140780094
:1024d8008180fb00c808dd00810071000170a00048
:1024e800f20f20000281600090417800e0c1610095
:1024f80002c1710002487800c808de000001e80047
:102508001241780060416100814071000000e800dc
:10251800014878001470ef001370ef0012d0bf006c
:102528000004a2000004e00001003200befd070024
:102538000080fa00000006000200fa0080c0b30024
:10254800004f7800508b8000e70f50000d003e00d0
:10255800508b8000004f780008d0bf000004e000d6
:1025680003003a0010c0b30008f0b70005003700b8
:1025780008d0bf00e14f500002003a0020c0b3006d
:1025880008f0b700518b80001e80fb0000805000cf
:10259800508b8800018b80001e80fb00f23f2000da
:1025a80002006000f20f2000020160008181e80053
:1025b80093417800e0c1610082c171000181e800a7
:1025c800034978004800de00630060006340600053
:1025d8006381400092417800c2cfb30002c161001c
:1025e8000041710063804000024878001018210003
:1025f80050808800408b8000610060000000e0008f
:1026080017003a000900370051808000308b8000a5
:1026180010417800824878008100e80051808800e5
:102628000000e800308b88001e4fe9001e4078004b
:102638000004e000f4ff3a000c00370051808000ed
:10264800308b800010417800824878008100e800d3
:10265800518088000000e800308b88001e4fe90098
:102668001e4078000004e000f4ff3a000080fa0001
:10267800000006000200fa00208080008080e80048
:10268800914078008180fb00630040001040780092
:102698000080fb00630060004800dd0000807000df
:1026a800004f78009e80fb00f01621001080fb0090
:1026b800021721001281fb004811dd0002007000a2
:1026c800808f500007003600f01621001080fb00b4
:1026d800011721009180fb00c808dd00010070008f
:1026e800004f7800f01621001080fb000117210030
:1026f8009180fb00c808dd000100700080007800b0
:102708001e80fb0000805000f10f200001016000d6
:10271800f116210091417800e0c1610002c1710009
:1027280082487800c800de000017210010417800b8
:102738006041610081407100014878008040eb00f1
:102748000e00e8000148780020003700c01621007c
:102758001080fb00d11621009180fb00c808dd0025
:10276800010070008e00e800914078008180fb0035
:10277800121821008100410091407800014878003a
:102788000000e800f10f200001016000c1162100df
:1027980091417800e0c1610002c17100824878006f
:1027a800c800de00d01621001041780060416100a9
:1027b80081407100014878000e00e8001040780060
:1027c8008040e8000e00e800014878000e00e800ac
:1027d800104078009e4f5000dcff3900f0162100b1
:1027e8001080fb00011721009180fb00c808dd0064
:1027f800010070000000e0006700320030808000b7
:102808008080e80091407800e0c0600001417800d5
:102818000234a0008080e80082487800e30040008d
:1028280011417800c1cfb3008140610063004000ce
:10283800014878003080800011182100f20f200034
:1028480002816000e401400093417800e0c161002a
:1028580082c171006401400003497800c808de00a5
:1028680065014000124178006041610081407100bb
:102878006500400001487800208080001040780002
:102888000044b2000004e00022003a0030808000da
:102898009040780060c1600081c4b300814071003d
:1028a800014878008000e80091407800e0c06000ae
:1028b8000000e80001487800308080003180800006
:1028c8001181fb008100e800914078008180fb00c5
:1028d800c808dd00810071000170a000f20f20001f
:1028e8000281600090417800e0c1610002c171007e
:1028f80002487800c808de000001e80012417800ac
:1029080060416100814071000000e80001487800e2
:10291800780037003080800090407800e0c0600088
:102928000134a000014878008000e8009140780058
:10293800e0c060000000e8000148780030808000b6
:10294800318080001181fb008100e800914078000f
:102958008180fb00c808dd00810071000170a000c3
:10296800f20f20000281600090417800e0c1610010
:1029780002c1710002487800c808de000001e800c2
:102988001241780060416100814071000000e80058
:102998000148780057003700308080008080e800c8
:1029a80091407800e0c06000014178000234a00046
:1029b8008080e80082487800e300400011417800f8
:1029c800c1cfb30081406100630040000148780036
:1029d8003080800091172100f20f200002816000f2
:1029e800e401400093417800e0c1610082c17100b8
:1029f8006401400003497800c808de006501400012
:102a0800124178006041610081407100650040001a
:102a1800014878003080800090407800e0c0600075
:102a28000124a000014878008000e8009140780067
:102a3800e0c060000000e8000148780030808000b5
:102a4800318080001181fb008100e800914078000e
:102a58008180fb00c808dd00810071000170a000c2
:102a6800f20f20000281600090417800e0c161000f
:102a780002c1710002487800c808de000001e800c1
:102a88001241780060416100814071000000e80057
:102a980001487800101721001080fb002117210041
:102aa8009180fb00c808dd00010070000000e00014
:102ab80007003200101721001080fb0021172100a9
:102ac8009180fb00c808dd000100700000000100d3
:102ad800e0162100904078000174a10001487800b8
:102ae80012d0bf000004a2000004e0000100320080
:102af8004dfc07000080fa00000006000200fa0002
:102b0800408b80000070a000408b880042002000ad
:102b18008000eb00204e200091f7070002062000fd
:102b28008000eb00002021008df70700ca24a800d0
:102b38000040eb00004f78000b0037001e80fb00c0
:102b480031172100008040008040eb0001487800e8
:102b58001e80fb0061172100008040008040eb00d0
:102b6800014878001e4fe8001e407800e24f5000f0
:102b7800f2ff3600220020008000eb0080152100c3
:102b880077f70700ca24a90000212100008b8800dc
:102b9800002021002080880020808000308088006c
:102ba800b01721001040780002f0b70002d0bf0033
:102bb8000004e00003003a000001200000808800c3
:102bc800060037001200200021002100100020001c
:102bd8000d12070000022000008088000080fa0023
:102be800000006000000fa009017210090407800cd
:102bf80000c8b30080cf500047003a00801621007b
:102c080001ccb30001487800c017210010407800bb
:102c18000080fb00e20f500009003200e30f500073
:102c280023003200e10f500037003a0060582800b6
:102c3800308b880020012000508b88003600370038
:102c4800b0172100104078000004e00014003a009a
:102c5800b0172100104078000080fb000000400001
:102c68008000780040632800008040001000780051
:102c7800308b8800308b80000080e800904078001e
:102c8800a016210001487800308b800063004000c6
:102c980090407800b0162100014878001e003700e7
:102ca800801621008040eb00014878001a003700a8
:102cb800b017210010407800e24f50000e003e008f
:102cc800b0172100104078000080fb000000400091
:102cd80080007800606328000080400010007800c1
:102ce800308b8800308b8000104078000080fb001b
:102cf800508b880008003700801621008040eb00c8
:102d08000148780004003700801621008040eb005d
:102d180001487800000000000080fa00000006006a
:102d28000200fa00101821008040eb0001487800ea
:102d3800201821008040eb000148780090172100fe
:102d4800904078007fc060000080fb00e10f5000d9
:102d580011003200e20f5000130032000000e000c2
:102d68003f003a00408b80000070a000408b880034
:102d78000cd0bf000004e00034003200101821001d
:102d880010407800804078000114a000101821003d
:102d98000148780032003700408b80000070a000a6
:102da800408b88002e003700408b80000070a00008
:102db800408b8800d01721009040780000c8b300ed
:102dc80000c060000004e00009003a00d0172100ac
:102dd800904078006fc060000080fb0080004000d9
:102de800a015210000804000100f7800080037006f
:102df800d0172100904078006fc060000080fb0071
:102e0800800040000016210000804000100f78006c
:102e18001e0078009040780000c8b30000c0600031
:102e28000004e0000b0032001e007800104078001b
:102e3800644060000004e00008003200101821001f
:102e480011c0b300014878000500370000000000f9
:102e580003003700000000000100370000000000f8
:102e6800418b800000082000008060000000e00026
:102e78000800320010182100308b8800408b800039
:102e88000000a000408b8800a016210021c0b300dc
:102e9800014878000080fa00000006000000fa00ef
:102ea80000278000620060000000e0003700320068
:102eb800208080009080fb000000e800104078002f
:102ec8000080fb004800dd00008070008000780072
:102ed80000082000808f50002b003a00008b8000f3
:102ee8009080fb000000e800104078000080fb00a4
:102ef8004800dd0000807000800078004008200055
:102f0800808f500020003a00208080009040780098
:102f1800e0c06000c140b300014878008000e800cc
:102f280091407800e0c060000000e80001487800a7
:102f380020808000218080001181fb008100e80052
:102f4800914078008180fb00c808dd008100710095
:102f58000170a000f20f200002816000904178000b
:102f6800e0c1610002c1710002487800c808de00b3
:102f78000001e80012417800604161008140710061
:102f88000000e80001487800e024a90000082000bb
:102f9800002688000080fa00000006000000fa0001
:102fa8008a84a800000120000026880010c0b30011
:102fb8000df0b7001c70ef000001eb008000eb0083
:102fc80050072000101107000080fa0000000600da
:102fd8000000fa000d70ef000001eb008000eb002c
:102fe80040072000081107008a84a900000120007a
:102ff800402488001c70ef000080fa0000000600e2
:103008000000fa00d0c2b30011f0b7000ed0bf0024
:103018000080fb000020a1000000e00026003a002c
:103028000ed0bf000080fb004200de0000407800a8
:103038000080fb00c300dd0000202100008040006c
:1030480020808800208080003080880030808000c8
:103058000030a20030808800208080001040780076
:10306800c2c3b3008240600040c3b30080cf5000a9
:103078000f003a0020808000e40040009140780072
:103088008180fb0065004000104078000080fb0054
:103098004800dd0000807000820020008000780079
:1030a8009017210027f607000b00070008003700db
:1030b80070000700060037000ed0bf000080fb003c
:1030c8000020a100e80f500001003a00b7000700f7
:1030d8000080fa00000006000000fa000870ef0007
:1030e8001270ef001570ef001670ef001070ef000f
:1030f8000970ef00008b8000018b80001181fb00bc
:103108008100e800914078008180fb00c808dd005c
:10311800810071000170a100f20f2000028160009f
:1031280090417800e0c1610002c171000248780056
:10313800c808de000001e800124178006041610023
:10314800814071000000e80001487800008b800091
:103158000030a200008b8800008b8000018b80006b
:103168001181fb008100e800914078008180fb001c
:10317800c808dd00810071000170a100f20f200075
:103188000281600090417800e0c1610002c17100d5
:1031980002487800c808de000001e8001241780003
:1031a80060416100814071000000e800014878003a
:1031b800008b80000030a200008b880030808000e7
:1031c800318080001181fb008100e8009140780087
:1031d8008180fb00c808dd00810071000170a1003a
:1031e800f20f20000281600090417800e0c1610088
:1031f80002c1710002487800c808de000001e8003a
:103208001241780060416100814071000000e800cf
:1032180001487800801621008040eb0001487800c2
:103228000000eb00508b8800e01621008040eb0086
:1032380001487800f016210090407800e0c0600056
:10324800014878000017210090407800e0c0600035
:10325800014878000a0107000001eb008000eb003c
:103268003000200068100700ddfb07000080fa002e
:10327800000006000000fa0009d0bf00e24f50002d
:1032880002003a00fbfc0700460037000970ef0017
:1032980010d0bf000004a2000004e000400032008b
:1032a800308080008080e80091407800e0c06000b5
:1032b800014178000234a0008080e800824878004c
:1032c800e300400011417800c1cfb30081406100a4
:1032d8006300400001487800308080009117210089
:1032e800f20f200002816000e40140009341780061
:1032f800e0c1610082c171006401400003497800a7
:10330800c808de0065014000124178006041610094
:1033180081407100650040000148780030808000dd
:1033280090407800e0c06000c140b30001487800d8
:103338008000e80091407800e0c060000000e800ec
:103348000148780030808000318080001181fb00c6
:103358008100e800914078008180fb00c808dd000a
:10336800810071000170a000f20f2000028160004e
:1033780090417800e0c1610002c171000248780004
:10338800c808de000001e8001241780060416100d1
:10339800814071000000e800014878000100370012
:1033a8001070ef000080fa00000006000200fa002a
:1033b800008b80001080fb004600de00614060004a
:1033c800004f7800008b80000030a200008b88003e
:1033d80000808000e80f50000e003a00b01721006e
:1033e800104078008080fb00f0072000008060001b
:1033f80060268800602680000000e000030032009c
:1034080000012000008088000200370040002000f2
:103418000080880009d0bf00e14f50007c003a00ce
:10342800008b800011182100f20f2000028160003b
:10343800e401400093417800e0c1610082c171005d
:103448006401400003497800c808de0065014000b7
:1034580012417800604161008140710065004000c0
:103468000148780034fc070008d0bf00e24f500044
:1034780021003a00008b800090407800e0c0600096
:103488000124a000014878008000e80091407800fd
:10349800e0c060000000e80001487800008b800070
:1034a800018b80001181fb008100e80091407800c9
:1034b8008180fb00c808dd00810071000170a00058
:1034c800f20f20000281600090417800e0c16100a5
:1034d80002c1710002487800c808de000001e80057
:1034e8001241780060416100814071000000e800ed
:1034f80001487800600037001e4078000004e000b2
:1035080022003a00008b80009040780060c1600083
:1035180081c4b30081407100014878008000e80050
:1035280091407800e0c060000000e80001487800a1
:10353800008b8000018b80001181fb008100e80076
:10354800914078008180fb00c808dd00810071008f
:103558000170a000f20f2000028160009041780005
:10356800e0c1610002c1710002487800c808de00ad
:103578000001e8001241780060416100814071005b
:103588000000e800014878003b003700008b80000d
:1035980090407800e0c060000134a0000148780045
:1035a8008000e80091407800e0c060000000e8007a
:1035b80001487800008b8000018b80001181fb009e
:1035c8008100e800914078008180fb00c808dd0098
:1035d800810071000170a000f20f200002816000dc
:1035e80090417800e0c1610002c171000248780092
:1035f800c808de000001e80012417800604161005f
:10360800814071000000e800014878001a00370086
:10361800e01621009040780000c8b30000c06000a8
:103628000004e00013003200101721001080fb0096
:10363800211721009180fb00c808dd0001007000ff
:103648000000e00007003200101721001080fb0086
:10365800211721009180fb00c808dd0001007000df
:1036680000000100e0162100904078000174a100dc
:10367800014878000970ef000080fa000000060099
:103688000000fa0090172100104078000046b200b0
:103698000004e00051003a00a01721001040780013
:1036a8000080fb00cf80de00b20020000300200075
:1036b800820f5000838f58004a003e000006010028
:1036c800210037002200370048003700200037006b
:1036d80046003700060037000b0037003a00370075
:1036e8000d0037000a0037001b0037002a0037009a
:1036f800408b80000070a000408b88008000200074
:10370800008088003a00370036fd0700380037008f
:10371800fafc07003600370020002100308b8800b3
:10372800408b80000000a000408b8800a01621007c
:1037380011c0b30001487800408b80000070a000e1
:10374800408b88002a00370075fd070028003700e5
:103758002900070026003700d01721001040780004
:103768008080fb008015210000804000308b88009d
:10377800408b80000000a000408b8800a01621002c
:1037880011c0b30001487800408b80000070a00091
:10379800408b880016003700408b80000070a00026
:1037a800408b8800d0172100104078000080fb0073
:1037b800b1172100914078008215210000004100d6
:1037c800014878000a0037000001eb008000eb0098
:1037d800200020000c0f0700050037000000000043
:1037e800030037000000000001003700000000005f
:1037f8000080fa00000006000600fa00b017210059
:1038080010407800e14f500010003a009017210056
:10381800104078007f4060000004e0000b003a0090
:10382800408b80000070a000408b8800a01721000a
:1038380010407800e34f500003003a0010c0b30076
:103848000cf0b700010037000c70ef00b017210032
:10385800104078000004e00076013a00901721003b
:10386800104078007f406000e24f500071013a003c
:10387800d0172100104078006f4060000004e0007d
:103888006c013200d0172100904078006fc06000b2
:103898000080fb00e20f500066013c0001808000c0
:1038a80000022000808f500062013a00408b8000a7
:1038b8000070a000408b8800d0172100904078004d
:1038c80000c8b30000c060000004e00012003a0025
:1038d800d0172100104178006f4061000080fb0084
:1038e80080004000a015210000804000100f7800e3
:1038f800d0172100904078006fc060000080fb0066
:103908006117210000804000904078006400470063
:103918000148780011003700d017210010417800c5
:103928006f4061000080fb0080004000001621000d
:1039380000804000100f7800d017210090407800d8
:103948006fc060000080fb0031172100008040003c
:103958009040780064004700014878006400470000
:1039680010407800614060000004e00004003a0064
:103978001e0078000030a100000f78000300370017
:103988001e0078000030a000000f7800d01721003a
:103998009040780000c8b30000c060000004e00058
:1039a8000a003a00d0172100104178006f406100ea
:1039b8000080fb001e01780080004000a015210057
:1039c800008040000208780009003700d017210065
:1039d800904078006fc060000080fb001e017800f6
:1039e8008000400000162100008040000208780096
:1039f800a017210010407800e34f50004e003a0015
:103a08001e0078009040780000c8b30000c0600035
:103a18000004e00019003200d0172100904078001f
:103a280000c8b30000c060000004e0000a003a00cb
:103a3800d0172100104178006f4061008080fb00a2
:103a48006017210000804000904078000114a00019
:103a58000148780009003700d0172100904078000d
:103a68006fc060008080fb0030172100008040009c
:103a7800904078000114a000014878001e007800ea
:103a88009080fb000000e800104078000080fb00f8
:103a98004800dd0000807000800078000120a00050
:103aa8001e007800f20f200002816000904178002b
:103ab800e0c1610002c1710002487800c808de0058
:103ac8000001e80012417800604161008140710006
:103ad8000000e800014878001e0078009080fb0094
:103ae8000000e800104078000080fb004800dd007e
:103af80000807000800078000170a0001e0078002f
:103b0800f20f20000281600090417800e0c161005e
:103b180002c1710002487800c808de000001e80010
:103b28001241780060416100814071000000e800a6
:103b380001487800bf0037001e0078000030a2005e
:103b4800000f78001e0078009040780000c8b3008d
:103b580000c060000004e000330032001e0078005e
:103b68009080fb000000e800104078000080fb0017
:103b78004800dd0000807000800078000170a1001e
:103b88001e007800f20f200002816000904178004a
:103b9800e0c1610002c1710002487800c808de0077
:103ba8000001e80012417800604161008140710025
:103bb8000000e800014878001e0078009080fb00b3
:103bc8000000e800104078000080fb004800dd009d
:103bd80000807000800078000160a0001e0078005e
:103be800f20f20000281600090417800e0c161007e
:103bf80002c1710002487800c808de000001e80030
:103c08001241780060416100814071000000e800c5
:103c180001487800220020009e0078005000200013
:103c2800f90d0700170037001e0078009080fb0090
:103c38000000e800104078000080fb004800dd002c
:103c480000807000800078000160a0001e007800ed
:103c5800f20f20000281600090417800e0c161000d
:103c680002c1710002487800c808de000001e800bf
:103c78001241780060416100814071000000e80055
:103c8800014878001e0078000030a200000f78007c
:103c98006400470010407800624060000004e000c3
:103ca80006003a001e0078009040780000c8b30073
:103cb80000c060000004e00036003200d017210088
:103cc8009040780000c8b30000c060000004e00025
:103cd8000a003a00d0172100104178006f406100b7
:103ce8008080fb0060172100008040009040780031
:103cf8000114a1000148780009003700d0172100fd
:103d0800904078006fc060008080fb003017210071
:103d180000804000904078000114a100014878001c
:103d28001e0078009080fb000000e800104078003a
:103d38000080fb004800dd000080700080007800f3
:103d4800b0f32f00808060001e007800f20f200082
:103d58000281600090417800e0c1610002c17100f9
:103d680002487800c808de000001e8001241780027
:103d780060416100814071000000e800014878005e
:103d8800220020009e007800500020009e0d0700b1
:103d9800180037001e0078009080fb000000e80043
:103da800104078000080fb004800dd0000807000b3
:103db80080007800b0f32f00808060001e0078003b
:103dc800f20f20000281600090417800e0c161009c
:103dd80002c1710002487800c808de000001e8004e
:103de8001241780060416100814071000000e800e4
:103df80001487800014e2000d017210010417800ba
:103e08006f4061000080fb0000004000808040009f
:103e18000e80e800010878000e80e80010007800a5
:103e2800104078000014a1008e80e800910078000e
:103e3800804878000080fa00000006000000fa00c0
:103e4800c0808000d180800061004000e080480090
:103e5800c0808800d18088000dd0bf000004a20077
:103e68000004e000080032001cd0bf000040e80059
:103e78001cf0b7001cd0bf000004e00002003a00ac
:103e880000c0eb001cf0b7000080fa00000006003c
:103e98000400fa00c2808000d3808000028fbe0038
:103ea800c0808000d18080001e0178009e019000b3
:103eb800800f5100818f5900f6ff3a001e007800ec
:103ec8009e0090000080fa00000006000200fa0040
:103ed800000f78001e0078008000eb00e200200050
:103ee80003002000820f5000838f58002e003e00f0
:103ef800000601000e0037000f00370010003700e1
:103f08001100370012003700130037001400370083
:103f18001500370016003700170037001800370063
:103f2800190037001a0037001b0037001c00370043
:103f380001eba8001d00370011eba8001b0037009b
:103f480021eba8001900370031eba8001700370053
:103f580041eba8001500370051eba800130037000b
:103f680061eba8001100370071eba8000f003700c3
:103f780081eba8000d00370091eba8000b0037007b
:103f8800a1eba80009003700b1eba8000700370033
:103f9800c1eba80005003700d1eba80003003700eb
:103fa800e1eba80001003700000000000080fa00e3
:103fb800000006000400fa00000f78000e80e800f8
:103fc800010878001e0078008000eb00e200200065
:103fd80003002000820f5000838f58005b003e00d2
:103fe800000601000e0037001200370016003700e7
:103ff8001a0037001e00370022003700260037005d
:104008002a0037002e00370032003700360037000c
:104018003a0037003e0037004200370046003700bc
:104028000e80e8009000780021588800062bef00e9
:10403800470037000e80e80090007800a1588800fb
:10404800162bef00420037000e80e8009000780041
:1040580021598800262bef003d0037000e80e8002c
:1040680090007800a1598800362bef0038003700ff
:104078000e80e80090007800215a8800462bef0057
:10408800330037000e80e80090007800a15a8800bd
:10409800562bef002e0037000e80e80090007800c5
:1040a800215b8800662bef00290037000e80e800ae
:1040b80090007800a15b8800762bef002400370081
:1040c8000e80e80090007800215c8800862bef00c5
:1040d8001f0037000e80e80090007800a15c88007f
:1040e800962bef001a0037000e80e8009000780049
:1040f800215d8800a62bef00150037000e80e80030
:1041080090007800a15d8800b62bef001000370002
:104118000e80e80090007800215e8800c62bef0032
:104128000b0037000e80e80090007800a15e880040
:10413800d62bef00060037000e80e80090007800cc
:10414800215f8800e62bef00010037000000000027
:104158000080fa00000006000400fa00000f780052
:104168000e80e800010878001e0078008000eb004f
:10417800e200200003002000820f5000838f5800c7
:104188004c003e00000601000e0037001100370009
:1041980014003700170037001a0037001d003700d9
:1041a8002000370023003700260037002900370099
:1041b8002c0037002f003700320037003500370059
:1041c800380037000e80e8009000780061588800b9
:1041d800390037000e80e80090007800e158880028
:1041e800350037000e80e80090007800615988009b
:1041f800310037000e80e80090007800e15988000f
:104208002d0037000e80e80090007800615a880081
:10421800290037000e80e80090007800e15a8800f5
:10422800250037000e80e80090007800615b880068
:10423800210037000e80e80090007800e15b8800dc
:104248001d0037000e80e80090007800615c88004f
:10425800190037000e80e80090007800e15c8800c3
:10426800150037000e80e80090007800615d880036
:10427800110037000e80e80090007800e15d8800aa
:104288000d0037000e80e80090007800615e88001d
:10429800090037000e80e80090007800e15e880091
:1042a800050037000e80e80090007800615f880004
:1042b80001003700000000000080fa00000006003e
:1042c8004400fa00889fbe008a9fbe008c9fbe00f3
:1042d80068014700004978006a0047000108780033
:1042e8008000eb000e80e800010878000000eb0079
:1042f800000f78006011b800640047000288be0013
:1043080068004700104078000080fb004400dd0092
:104318006100b80000f0a7000120200004c02d00b3
:10432800150020000001d0008401d00003004100e6
:104338004220a800858048004200a9004220ae0023
:104348004200a8000080d30093018000010178009a
:1043580002d0fe00000078001000780003d0fe00b4
:10436800e10060000e80e800010878000e80e80097
:10437800100078000000e00041003a0068004700a3
:10438800104078000080fb004400dd006100b800a8
:1043980000f0a7000120200008c02d00190020000f
:1043a8000002d0008802d000050042004220a80088
:1043b800898048004200a9004220ae004200a800bf
:1043c8000080d300930180000101780002d0fe0034
:1043d800000078009000780003d0fe00c0ff2100a4
:1043e800008060004200de006101b8006a004700fa
:1043f800100078000288be006a00470010017800ab
:104408006400410010007800800078000100a100dd
:1044180064004100010878006800470010407800f7
:104428000080fb004400dd006100b80000f0a70038
:10443800012020000cc02d001d0020000003d0002a
:104448000c01d000020043004220a8008d804800e3
:104458004200a9004220ae004200a8000080d3001c
:10446800930180000101780002d0fe00000078006e
:104478001000780003d0fe00620f6000c000370013
:1044880068004700104078000080fb004400dd0011
:104498006100b80000f0a7000120200006c02d0030
:1044a800170020008001d0000602d00004804100df
:1044b8004220a800878048004200a9004220ae00a0
:1044c8004200a8000080d300930180000101780019
:1044d80002d0fe00000078001000780003d0fe0033
:1044e8008000eb00c2ff210003002000800278005a
:1044f8000102780082007800030078008180620061
:104508000000620080057800010578000a01be00fd
:10451800640047000288be006400470090009000d5
:1045280010007800c001dd00020020006a0047008a
:10453800100078000288be006a004700100078006a
:10454800100378009003900068004700104078003e
:104558000080fb004400dd000080e8006100b80036
:1045680000f0a7000120200005c02d006507980075
:1045780012002000720798006e029000fe02900060
:104588000001d0008401d000030041004220a800af
:10459800858048004200a9004220ae004200a800e1
:1045a8000080d300930180000101780002d0fe0052
:1045b800000078001000780003d0fe008000eb00b7
:1045c800f2ff20000300200080027800010278003a
:1045d8008200780003007800818062000000620099
:1045e800100f9800010f98000e0890009e08900088
:1045f8004609dd00ca01de00830171004601dd00c5
:1046080006014100878149006a00470010007800d0
:104618000288be006a004700100078001003780086
:104628009003900068004700104078000080fb006d
:104638004400dd00640040006100b80000f0a700fd
:104648000120200004c02d00240f98001500200030
:10465800350f98002e099000be0990000002d00086
:104668008202d000050042004220a8008380480052
:104678004200a9004220ae004200a8000080d300fa
:10468800930180000101780002d0fe00000078004c
:104698001000780003d0fe004a00de008000eb0026
:1046a800f2ff2f000300200080027800010278004a
:1046b80082007800030078008180620000006200b8
:1046c800500f9800410f98004e089000de089000a7
:1046d80006014000878148006a0047001000780002
:1046e8000288be006a00470010017800640041009b
:1046f80010007800800078000100a00064004100ec
:104708000108780068004700104078000080fb002e
:104718004400dd00640040006100b80000f0a7001c
:104728000120200006c02d00660f9800120020000e
:10473800720f98006e0a9000fe0a90000003d000e5
:104748000401d000020043004220a80085804800f0
:104758004200a9004220ae004200a8000080d30019
:10476800930180000101780002d0fe00000078006b
:104778009000780003d0fe0000202000008f600029
:104788001e0078000000e000080032006a004700c0
:1047980010007800e4004000910078000110a000ab
:1047a8006400400001087800580137006a0047009b
:1047b8001001780064004100100078008000780043
:1047c8000110a10064004100010878006a00470058
:1047d800100078006600400010027800680047006a
:1047e800104078000080fb004400dd0066004000b7
:1047f8006100b80000f0a7000120200003c02d00d0
:104808000317980015002000151798000e11900046
:104818009e1190008002d0000203d0000680420062
:104828004220a800838048004200a9004220ae0030
:104838004200a8000080d3009301800001017800a5
:1048480002d0fe00000078001000780003d0fe00bf
:1048580000407800004a78006a004700100078009d
:1048680066004000100078000002e8006800470079
:10487800104078000080fb004400dd006600400026
:104888006100b80000f0a7000120200002c02d0040
:104898002217980013002000331798002e1190005b
:1048a800be1190008002d0000203d00006804200b2
:1048b8004220a800838048004200a9004220ae00a0
:1048c8004200a8000080d300930180000101780015
:1048d80002d0fe00000078001000780003d0fe002f
:1048e8004800de0000407800004a78006a0047006f
:1048f8001000780066004000100078000082e80090
:1049080068004700104078000080fb004400dd008c
:10491800680040006100b80000f0a70001202000f6
:1049280002c02d004217980013002000531798006a
:104938004e119000de1190008002d0000203d000da
:10494800068042004220a800838048004200a90057
:104958004220ae004200a8000080d30093018000ee
:104968000101780002d0fe000000780010007800f5
:1049780003d0fe0000407800004a78006a00470033
:1049880010007800660040001000780063024000c4
:1049980068004700104078000080fb004400dd00fc
:1049a800680040006100b80000f0a7000120200066
:1049b80002c02d006217980013002000731798009a
:1049c8006e119000fe1190008002d0000203d0000a
:1049d800068042004220a800838048004200a900c7
:1049e8004220ae004200a8000080d300920180005f
:1049f8008101780003d0fe000000780010007800e4
:104a080002d0fe004800de0000407800004a78002e
:104a18006a00470010007800660040001000780027
:104a28006401400068004700104078000080fb00e7
:104a38004400dd006a0040006100b80000f0a700f3
:104a48000120200003c02d00031f9800140020003f
:104a5800141f98000e1a90009e1a90000003d000b0
:104a68008401d000030043004220a800858048004c
:104a78004200a9004220ae004200a8000080d300f6
:104a8800930180000102780004d0fe000000780045
:104a98001000780003d0fe0000407800004978003c
:104aa8006a00470010007800660040001000780097
:104ab8006501400068004700104078000080fb0056
:104ac8004400dd006a0040006100b80000f0a70063
:104ad8000120200004c02d00241f9800150020008c
:104ae800351f98002e1a9000be1a90000003d000bf
:104af8008401d000030043004220a80085804800bc
:104b08004200a9004220ae004200a8000080d30065
:104b1800930180000102780004d0fe0000007800b4
:104b28001000780003d0fe004800de000040780046
:104b3800004978006a0047001000780066004000cd
:104b480010007800660140006800470010407800b7
:104b58000080fb004400dd006c0040006100b800ec
:104b680000f0a7000120200004c02d00441f980079
:104b780015002000551f98004e1a9000de1a90006c
:104b88000003d0008401d000030043004220a800a5
:104b9800858048004200a9004220ae004200a800db
:104ba8000080d300930180000102780004d0fe0049
:104bb800000078001000780003d0fe000040780064
:104bc800004978006a00470010007800660040003d
:104bd8001000780067014000680047001040780026
:104be8000080fb004400dd006c0040006100b8005c
:104bf80000f0a7000120200004c02d00641f9800c9
:104c080015002000751f98006e1a9000fe1a90007b
:104c18000003d0008401d000030043004220a80014
:104c2800858048004200a9004220ae004200a8004a
:104c38000080d300930180000102780004d0fe00b8
:104c4800000078001000780003d0fe004800de0065
:104c5800004078000049780068004700104078005c
:104c68000080fb004400dd00640040006100b800e3
:104c780000f0a7000120200004c02d0004279800a0
:104c880015002000152798000e2190009e21900005
:104c98000002d0008202d000050042004220a80095
:104ca800838048004200a9004220ae004200a800cc
:104cb8000080d300920180008101780003d0fe00bb
:104cc800000078001000780002d0fe000040780054
:104cd8006f4060006f4060006f406000ea0047006e
:104ce800910078000080fb006f0060004200dd004a
:104cf800648140009201780032fc2f00028161003b
:104d08000201700064804000020878004f06be006f
:104d18004f05be004f04be000080fa0000000600e8
:104d28001400fa00889fbe008a9fbe008c9fbe00b8
:104d3800000f78000e80e800010878000e80e80077
:104d480010007800640040001000780061006000e6
:104d58000000e00055003a000e80e80010007800de
:104d6800900090001000780080007800f07f20000c
:104d7800008060004202dd001e0078004400dd0073
:104d88006100b80000f0a7000120200002c02d003b
:104d9800130020008002d0000203d00006804200e9
:104da8004220a800838048004200a9004220ae00ab
:104db8004200a8000080d300a30180000101780010
:104dc80000007800a201880004087800a301880088
:104dd8001e0078004400dd000080e8006100b80093
:104de80000f0a7000120200006c02d0017002000b9
:104df8000001d0008601d000030041004220a80035
:104e0800878048004200a9004220ae004200a80066
:104e18000080d3008001eb00a2018000010278002d
:104e280000007800a401880003087800a201880027
:104e38000e80e80010007800640040001000780040
:104e48004200de006f4060008081fb001e00780099
:104e58004400dd00640040006100b80000f0a700d5
:104e68000120200008c02d00190020000002d000f9
:104e78008802d000050042004220a800898048002e
:104e88004200a9004220ae004200a8000080d300e2
:104e9800a20180000102780000007800a4018800c7
:104ea80003087800a2018800670037000e80e80038
:104eb8001000780090009000100078004008de0094
:104ec80080007800c0ff21000080600000037800a7
:104ed8003600b3001e0078004400dd006100b80011
:104ee80000f0a7000120200004c02d0015002000bc
:104ef8000001d0008401d000030041004220a80036
:104f0800858048004200a9004220ae004200a80067
:104f18000080d300a3018000010178000000780020
:104f2800a201880006087800a30188000e80e80026
:104f38001000780090009000100078004a0add0008
:104f48004600de0000007200c608de00800078001f
:104f5800f0ff2000008260001e0078004400dd00a1
:104f68000080e8006100b80000f0a70001202000e0
:104f78000ac02d001b0020008002d0000a03d000c8
:104f8800068042004220a8008b8048004200a90009
:104f98004220ae004200a8000080d300a201800099
:104fa8008101780000007800a301880004087800d7
:104fb800a20188000e80e80010007800640040001c
:104fc800100078004200de006f4060000081fb00a6
:104fd8000e80e80010007800900090001000780023
:104fe800000078004a00dd00800141001e007800c2
:104ff8004400dd00640040006100b80000f0a70034
:10500800012020000cc02d001d0020000001d00050
:105018000c02d000040041004220a8008d80480006
:105028004200a9004220ae004200a8000080d30040
:10503800a20180000102780000007800a401880025
:1050480003087800a20188000e80e80010007800ac
:1050580066004000100078000000e000af00320059
:105068000e80e8001000780066004000100078000c
:105078000000e800104078000080fb00c800dd0058
:105088000e80e800100078006600400010007800ec
:10509800104078000080fb0000804000800178000c
:1050a8001e0078004400dd00660040006100b80082
:1050b80000f0a7000120200005c02d00250798005a
:1050c80016002000360798002e029000be029000bd
:1050d8000003d0000401d000020043004220a800d1
:1050e800858048004200a9004220ae004200a80086
:1050f8000080d300a201800001027800000078003f
:10510800a401880003087800a20188000e80e80046
:10511800100078006600400010007800630040002e
:10512800104078000080fb00c800dd000e80e80019
:105138001000780066004000100078000080e80049
:10514800104078000080fb0000804000800178005b
:105158001e0078004400dd00680040006100b800cf
:1051680000f0a7000120200004c02d00440798008b
:1051780015002000550798004e029000de029000ae
:105188000003d0000401d000020043004220a80020
:10519800858048004200a9004220ae004200a800d5
:1051a8000080d300a201800001027800000078008e
:1051b800a401880003087800a20188000e80e80096
:1051c800100078006600400010007800650040007c
:1051d800104078000080fb00c800dd000e80e80069
:1051e800100078006600400010007800640040005d
:1051f800104078000080fb000080400080017800ab
:105208001e0078004400dd006a0040006100b8001c
:1052180000f0a7000120200004c02d0064079800ba
:1052280015002000750798006e029000fe0290009d
:105238000003d0000401d000020043004220a8006f
:10524800858048004200a9004220ae004200a80024
:105258000080d300a20180000102780000007800dd
:10526800a401880003087800a20188000e80e800e5
:1052780010007800660040001000780067004000c9
:10528800104078000080fb00c800dd000e80e800b8
:1052980010007800660040001000780066004000aa
:1052a800104078000080fb000080400080017800fa
:1052b8001e0078004400dd006c0040006100b8006a
:1052c80000f0a7000120200004c02d00040f980062
:1052d80015002000150f98000e0a90009e0a9000f5
:1052e8000003d0000401d000020043004220a800bf
:1052f800858048004200a9004220ae004200a80074
:105308000080d300a201800001027800000078002c
:10531800a401880003087800a20188004f06be0097
:105328004f05be004f04be000080fa0000000600d2
:105338000000fa002468a9000c24ef000120800076
:10534800f08f2f000080600000a0a00000208800df
:105358000000000001208000000e20008080600016
:1053680000082000808f5000faff3a00d00020008b
:1053780080208800801a20009020880010002c00cf
:10538800302088001424ef000080200000208800ce
:105398000004a800802180007f0060008021880030
:1053a800a02180007f006000a0218800c02180002b
:1053b8007f006000c021880081218000c0ff2f008d
:1053c8000080600080218800a1218000c0ff2f009c
:1053d80000806000a0218800c1218000c0ff2f004c
:1053e80000806000c02188003224ef003624ef00de
:1053f8003a24ef003064a9003464a9003864a90095
:105408000004a90030e4a80031e4a90032e4a900ae
:1054180033e4a90034e4a90035e4a90036e4a9007e
:1054280037e4a90081218000c0ff2f0000806000c0
:105438008021880081218000f0cf2f00008060004b
:105448008021880091218000c0ff2f00008060002b
:105458009021880091218000f0cf2f00008060000b
:1054680090218800a1218000c0ff2f0000806000eb
:10547800a0218800a1218000f0cf2f0000806000cb
:10548800a0218800b1218000c0ff2f0000806000ab
:10549800b0218800b1218000f0cf2f00008060008b
:1054a800b02188002024ef002224ef002824ef00f8
:1054b8002a24ef000a24a90001208000f08f2f0081
:1054c80000806000002088000000000001208000ab
:1054d800000e2000008060000000e000fbff3a00a2
:1054e80040d822008a01070080d9220092010700d3
:1054f800c0da22009a01070000dc2200a10107009f
:1055080020dd2200a90107002468a8000c24a800b7
:105518000ca4a8000080fa00000006000000fa00b1
:105528002044200080007800100020000afb0700bb
:1055380000c02d0080007800100020009dfa0700b0
:105548001000200061fa07000080fa000000060041
:105558000000fa0000442000800078000000eb0002
:10556800fdfa070000c02d00800078000000eb0065
:1055780090fa07000000eb0054fa07000080fa00d8
:10558800000006000400fa008e80e8008008780019
:105598000000eb00000f780025000700e40f500022
:1055a800080032000e80e80010007800e10f50007b
:1055b800040032000e80e80010007800e40f50006c
:1055c80016003a000e80e8001000780000407800cd
:1055d800674060000080fb00670060004800dd0055
:1055e80002208000f18f2f0081006100010070000f
:1055f8000020880000000000002080004500de0038
:10560800674060000080fb008e80e8009100780011
:10561800810f5000f8ff3a00020037001000200008
:10562800000f78001e0078000080fa0000000600d5
:105638000000fa00002080004500de00674060009e
:105648000080fb000080fa00000006000c00fa0051
:1056580068014700000978006a00470001087800df
:105668000000eb00000f7800014320000e80e800e6
:10567800010878008040eb00660047000148780088
:105688006a004700100078006400400010007800ad
:105698004200de006f4060000080fb00e80f500011
:1056a800010034001e00a0008000eb0064004700e9
:1056b80001087800310037000e80e80010007800fb
:1056c8009040780000c8b30000c060000004e0000b
:1056d800200032000e80e8001000780010407800aa
:1056e800684060000004e0001a003a006a004700c1
